:0400000002001132B7
:03000B00020111DE
:08006A00E4F508F50902000E9F
:03000E000200727B
:10007200E5A0541F4480F5A07580001200EE7F00B9
:10008200BF040050318F068EF005F0740180022506
:10009200E0D5F0FBFD7407C39EF5F005F074018016
:1000A2000225E0D5F0FB4205EDF4F580C007120110
:1000B20001D0070F80CA7F03EF60C38F068EF00561
:1000C200F07401800225E0D5F0FBFD7407C39EF5B4
:1000D200F005F07401800225E0D5F0FB4205EDF455
:1000E200F580C007120101D0071F80CC5389F0436D
:1000F2008902758CFC758A18D2A9D2AFD28C22AE35
:1001020008AF09BEE8F9BF03F6E4F508F50922C015
:10011200E0C0D00508E4B508020509D0D0D0E0322D
:06004000E478FFF6D8FD94
:10001E007900E94400601B7A00900126780175A0F2
:10002E0000E493F2A308B8000205A0D9F4DAF27541
:02003E00A0FF21
:100046007800E84400600A790175A000E4F309D855
:10005600FC7800E84400600C7900900001E4F0A30D
:04006600D8FCD9FAEF
:0D001100758109120122E582600302000ED4
:0401220075820022C0
:00000001FF
