:03000000020006F5
:03005F0002000399
:0300030002006296
:10006200E5A0541F4480F5A07580007F00BF040006
:1000720050318F068EF005F07401800225E0D5F034
:10008200FBFD7407C39EF5F005F07401800225E0C4
:10009200D5F0FB4205EDF4F580C0071200DBD00776
:1000A2000F80CA7F03EF60C38F068EF005F07401E4
:1000B200800225E0D5F0FBFD7407C39EF5F005F044
:1000C2007401800225E0D5F0FB4205EDF4F580C015
:1000D200071200DBD0071F80CC00007FE37E037D88
:0800E20016DFFEDEFCDDFA2250
:06003500E478FFF6D8FD9F
:100013007900E94400601B7A009000EE780175A036
:1000230000E493F2A308B8000205A0D9F4DAF2754C
:02003300A0FF2C
:10003B007800E84400600A790175A000E4F309D860
:10004B00FC7800E84400600C7900900001E4F0A318
:04005B00D8FCD9FAFA
:0D0006007581071200EAE582600302000325
:0400EA0075820022F9
:00000001FF
